{
  "contractName": "Book",
  "abi": [
    {
      "inputs": [],
      "payable": true,
      "stateMutability": "payable",
      "type": "constructor"
    },
    {
      "anonymous": false,
      "inputs": [
        {
          "indexed": false,
          "internalType": "string",
          "name": "winningTeam",
          "type": "string"
        }
      ],
      "name": "LogNewGameResult",
      "type": "event"
    },
    {
      "anonymous": false,
      "inputs": [
        {
          "indexed": false,
          "internalType": "string",
          "name": "description",
          "type": "string"
        }
      ],
      "name": "LogNewProvableQuery",
      "type": "event"
    },
    {
      "constant": true,
      "inputs": [
        {
          "internalType": "bytes32",
          "name": "",
          "type": "bytes32"
        }
      ],
      "name": "pendingQueries",
      "outputs": [
        {
          "internalType": "bytes32",
          "name": "teamName1",
          "type": "bytes32"
        },
        {
          "internalType": "bytes32",
          "name": "teamName2",
          "type": "bytes32"
        },
        {
          "internalType": "uint256",
          "name": "gameTime",
          "type": "uint256"
        },
        {
          "internalType": "bool",
          "name": "pending",
          "type": "bool"
        }
      ],
      "payable": false,
      "stateMutability": "view",
      "type": "function"
    },
    {
      "constant": false,
      "inputs": [
        {
          "internalType": "bytes32",
          "name": "winningTeam",
          "type": "bytes32"
        },
        {
          "internalType": "bytes32",
          "name": "losingTeam",
          "type": "bytes32"
        },
        {
          "internalType": "uint256",
          "name": "gameTime",
          "type": "uint256"
        }
      ],
      "name": "bet",
      "outputs": [],
      "payable": true,
      "stateMutability": "payable",
      "type": "function"
    },
    {
      "constant": true,
      "inputs": [],
      "name": "getBets",
      "outputs": [
        {
          "components": [
            {
              "internalType": "address payable",
              "name": "maker",
              "type": "address"
            },
            {
              "internalType": "bytes32",
              "name": "winningTeam",
              "type": "bytes32"
            },
            {
              "internalType": "bytes32",
              "name": "losingTeam",
              "type": "bytes32"
            },
            {
              "internalType": "uint256",
              "name": "gameTime",
              "type": "uint256"
            },
            {
              "internalType": "uint256",
              "name": "amount",
              "type": "uint256"
            },
            {
              "internalType": "enum Book.State",
              "name": "state",
              "type": "uint8"
            }
          ],
          "internalType": "struct Book.Bet[]",
          "name": "",
          "type": "tuple[]"
        }
      ],
      "payable": false,
      "stateMutability": "view",
      "type": "function"
    },
    {
      "constant": false,
      "inputs": [
        {
          "internalType": "bytes32",
          "name": "teamName1",
          "type": "bytes32"
        },
        {
          "internalType": "bytes32",
          "name": "teamName2",
          "type": "bytes32"
        },
        {
          "internalType": "uint256",
          "name": "gameTime",
          "type": "uint256"
        }
      ],
      "name": "triggerPayments",
      "outputs": [],
      "payable": false,
      "stateMutability": "nonpayable",
      "type": "function"
    },
    {
      "constant": false,
      "inputs": [
        {
          "internalType": "bytes32",
          "name": "_myid",
          "type": "bytes32"
        },
        {
          "internalType": "string",
          "name": "_result",
          "type": "string"
        }
      ],
      "name": "__callback",
      "outputs": [],
      "payable": false,
      "stateMutability": "nonpayable",
      "type": "function"
    },
    {
      "constant": false,
      "inputs": [
        {
          "internalType": "bytes32",
          "name": "_myid",
          "type": "bytes32"
        },
        {
          "internalType": "string",
          "name": "_result",
          "type": "string"
        },
        {
          "internalType": "bytes",
          "name": "_proof",
          "type": "bytes"
        }
      ],
      "name": "__callback",
      "outputs": [],
      "payable": false,
      "stateMutability": "nonpayable",
      "type": "function"
    }
  ],
  "bytecode": "0x6080604052600680546001600160a01b03191633179055611b93806100256000396000f3fe6080604052600436106100555760003560e01c806327dc297e1461005a57806338bbfa501461007c57806389a2cdcb1461009c578063a42009a9146100d5578063a6afd5fd146100f5578063c6c3391a14610117575b600080fd5b34801561006657600080fd5b5061007a610075366004611740565b61012a565b005b34801561008857600080fd5b5061007a610097366004611792565b61062f565b3480156100a857600080fd5b506100bc6100b73660046116b7565b610660565b6040516100cc94939291906119bc565b60405180910390f35b3480156100e157600080fd5b5061007a6100f03660046116f3565b61068a565b34801561010157600080fd5b5061010a6107bf565b6040516100cc91906119ab565b61007a6101253660046116f3565b610882565b7fa6614df57b9b351433452eeb2b73de8d2b2a5eb74e7cec410a9131d0ca7ee896816040516101599190611a25565b60405180910390a16101696109fd565b6001600160a01b0316336001600160a01b03161461018657600080fd5b60008281526007602052604090206003015460ff1615156001146101a957600080fd5b60006101b482610c0b565b600084815260076020526040812054919250908214156101e657506000838152600760205260409020600101546101f7565b506000838152600760205260409020545b600084815260076020526040812060028101805483835560018301849055908390556003909101805460ff191690559080805b6005548110156104065760006005828154811061024357fe5b60009182526020909120600560069092020181015460ff169081111561026557fe5b14801561028f5750836005828154811061027b57fe5b906000526020600020906006020160030154145b156103fe5785600582815481106102a257fe5b9060005260206000209060060201600101541480156102de575084600582815481106102ca57fe5b906000526020600020906006020160020154145b1561034b576001600582815481106102f257fe5b906000526020600020906006020160050160006101000a81548160ff0219169083600581111561031e57fe5b02179055506005818154811061033057fe5b906000526020600020906006020160040154830192506103fe565b846005828154811061035957fe5b9060005260206000209060060201600101541480156103955750856005828154811061038157fe5b906000526020600020906006020160020154145b156103fe576002600582815481106103a957fe5b906000526020600020906006020160050160006101000a81548160ff021916908360058111156103d557fe5b0217905550600581815481106103e757fe5b906000526020600020906006020160040154820191505b60010161022a565b508115158061041457508015155b1561046c57600654604051606483850104916001600160a01b0316906108fc8315029083906000818181858888f19350505050158015610458573d6000803e3d6000fd5b506063606493849004029282046063029150505b60005b6005548110156106255760016005828154811061048857fe5b60009182526020909120600560069092020181015460ff16908111156104aa57fe5b1480156104d4575083600582815481106104c057fe5b906000526020600020906006020160030154145b80156104fd575085600582815481106104e957fe5b906000526020600020906006020160010154145b80156105265750846005828154811061051257fe5b906000526020600020906006020160020154145b1561061d576005818154811061053857fe5b6000918252602090912060069091020154600580546001600160a01b03909216916108fc9186918590811061056957fe5b9060005260206000209060060201600401548161058257fe5b048402856005858154811061059357fe5b906000526020600020906006020160040154816105ac57fe5b048602019081150290604051600060405180830381858888f193505050501580156105db573d6000803e3d6000fd5b506004600582815481106105eb57fe5b906000526020600020906006020160050160006101000a81548160ff0219169083600581111561061757fe5b02179055505b60010161046f565b5050505050505050565b5050600080805260036020527f3617319a054d772f909f7c479a2cebe5066e836a939412e32403c99029b92eff5550565b60076020526000908152604090208054600182015460028301546003909301549192909160ff1684565b8080421161069757600080fd5b7fc4dc360d0a9c0677a3379ae0a3d81e887f761e65fdf3d7e00859d1bcd3c473896040516106c490611a36565b60405180910390a160006107616040518060400160405280600c81526020016b576f6c6672616d416c70686160a01b81525061075c6040518060400160405280601681526020017503bb4b73732b91033b0b6b2903932b9bab63a1037b3160551b81525061073189610c2d565b604051806040016040528060048152602001630103b39960e51b8152506107578a610c2d565b610d23565b610d4a565b6040805160808101825296875260208088019687528782019586526001606089018181526000948552600790925291909220965187559451948601949094555050516002830155516003909101805460ff1916911515919091179055565b60606005805480602002602001604051908101604052809291908181526020016000905b828210156108785760008481526020908190206040805160c0810182526006860290920180546001600160a01b03168352600181015493830193909352600283015490820152600382015460608201526004820154608082015260058083015491929160a084019160ff9091169081111561085a57fe5b600581111561086557fe5b81525050815260200190600101906107e3565b5050505090505b90565b8080421061088f57600080fd5b6040805160c08101825233815260208101868152918101858152606082018581523460808401908152600060a085018181526005805460018082018084559483905288517f036b6384b5eca791c62761152d0c79bb0604c104a5fb6f4eb0703f3154bb3db0600690930292830180546001600160a01b0319166001600160a01b0390921691909117815599517f036b6384b5eca791c62761152d0c79bb0604c104a5fb6f4eb0703f3154bb3db183015596517f036b6384b5eca791c62761152d0c79bb0604c104a5fb6f4eb0703f3154bb3db282015594517f036b6384b5eca791c62761152d0c79bb0604c104a5fb6f4eb0703f3154bb3db386015592517f036b6384b5eca791c62761152d0c79bb0604c104a5fb6f4eb0703f3154bb3db4850155517f036b6384b5eca791c62761152d0c79bb0604c104a5fb6f4eb0703f3154bb3db59093018054919694909260ff199092169184908111156109ef57fe5b021790555050505050505050565b6001546000906001600160a01b03161580610a2a5750600154610a28906001600160a01b0316611005565b155b15610a3b57610a396000611009565b505b600160009054906101000a90046001600160a01b03166001600160a01b03166338cc48316040518163ffffffff1660e01b8152600401602060405180830381600087803b158015610a8b57600080fd5b505af1158015610a9f573d6000803e3d6000fd5b505050506040513d601f19601f82011682018060405250610ac39190810190611699565b6000546001600160a01b03908116911614610b8157600160009054906101000a90046001600160a01b03166001600160a01b03166338cc48316040518163ffffffff1660e01b8152600401602060405180830381600087803b158015610b2857600080fd5b505af1158015610b3c573d6000803e3d6000fd5b505050506040513d601f19601f82011682018060405250610b609190810190611699565b600080546001600160a01b0319166001600160a01b03929092169190911790555b6000809054906101000a90046001600160a01b03166001600160a01b031663c281d19e6040518163ffffffff1660e01b815260040160206040518083038186803b158015610bce57600080fd5b505afa158015610be2573d6000803e3d6000fd5b505050506040513d601f19601f82011682018060405250610c069190810190611699565b905090565b80516000908290610c20575060009050610c28565b505060208101515b919050565b606060005b60208160ff16108015610c605750828160ff1660208110610c4f57fe5b1a60f81b6001600160f81b03191615155b15610c6d57600101610c32565b60608160ff166040519080825280601f01601f191660200182016040528015610c9d576020820181803883390190505b509050600091505b60208260ff16108015610cd35750838260ff1660208110610cc257fe5b1a60f81b6001600160f81b03191615155b15610d1c57838260ff1660208110610ce757fe5b1a60f81b818360ff1681518110610cfa57fe5b60200101906001600160f81b031916908160001a905350600190910190610ca5565b9392505050565b6060610d418585858560405180602001604052806000815250611013565b95945050505050565b6001546000906001600160a01b03161580610d775750600154610d75906001600160a01b0316611005565b155b15610d8857610d866000611009565b505b600160009054906101000a90046001600160a01b03166001600160a01b03166338cc48316040518163ffffffff1660e01b8152600401602060405180830381600087803b158015610dd857600080fd5b505af1158015610dec573d6000803e3d6000fd5b505050506040513d601f19601f82011682018060405250610e109190810190611699565b6000546001600160a01b03908116911614610ece57600160009054906101000a90046001600160a01b03166001600160a01b03166338cc48316040518163ffffffff1660e01b8152600401602060405180830381600087803b158015610e7557600080fd5b505af1158015610e89573d6000803e3d6000fd5b505050506040513d601f19601f82011682018060405250610ead9190810190611699565b600080546001600160a01b0319166001600160a01b03929092169190911790555b6000805460405163524f388960e01b81526001600160a01b039091169063524f388990610eff908790600401611a25565b602060405180830381600087803b158015610f1957600080fd5b505af1158015610f2d573d6000803e3d6000fd5b505050506040513d601f19601f82011682018060405250610f5191908101906116d5565b90503a62030d4002670de0b6b3a764000001811115610f74575060009050610fff565b6000805460405163adf59f9960e01b81526001600160a01b039091169163adf59f99918491610fa991899089906004016119f1565b6020604051808303818588803b158015610fc257600080fd5b505af1158015610fd6573d6000803e3d6000fd5b50505050506040513d601f19601f82011682018060405250610ffb91908101906116d5565b9150505b92915050565b3b90565b6000610fff611227565b6060808690506060869050606086905060608690506060869050606081518351855187518951010101016040519080825280601f01601f191660200182016040528015611067576020820181803883390190505b509050806000805b88518110156110c05788818151811061108457fe5b602001015160f81c60f81b8383806001019450815181106110a157fe5b60200101906001600160f81b031916908160001a90535060010161106f565b5060005b8751811015611115578781815181106110d957fe5b602001015160f81c60f81b8383806001019450815181106110f657fe5b60200101906001600160f81b031916908160001a9053506001016110c4565b5060005b865181101561116a5786818151811061112e57fe5b602001015160f81c60f81b83838060010194508151811061114b57fe5b60200101906001600160f81b031916908160001a905350600101611119565b5060005b85518110156111bf5785818151811061118357fe5b602001015160f81c60f81b8383806001019450815181106111a057fe5b60200101906001600160f81b031916908160001a90535060010161116e565b5060005b8451811015611214578481815181106111d857fe5b602001015160f81c60f81b8383806001019450815181106111f557fe5b60200101906001600160f81b031916908160001a9053506001016111c3565b50909d9c50505050505050505050505050565b600080611247731d3b2638a7cc9f2cb3d298a3da7a90b67e5506ed611005565b11156112a657600180546001600160a01b031916731d3b2638a7cc9f2cb3d298a3da7a90b67e5506ed17905560408051808201909152600b81526a195d1a17db585a5b9b995d60aa1b602082015261129e90611575565b50600161087f565b60006112c573c03a2615d5efaf5f49f60b7bb6583eaec212fdf1611005565b111561131d57600180546001600160a01b03191673c03a2615d5efaf5f49f60b7bb6583eaec212fdf117905560408051808201909152600c81526b6574685f726f707374656e3360a01b602082015261129e90611575565b600061133c73b7a07bcf2ba2f2703b24c0691b5278999c59ac7e611005565b111561139157600180546001600160a01b03191673b7a07bcf2ba2f2703b24c0691b5278999c59ac7e17905560408051808201909152600981526832ba342fb5b7bb30b760b91b602082015261129e90611575565b60006113b073146500cfd35b22e4a392fe0adc06de1a1368ed48611005565b111561140757600180546001600160a01b03191673146500cfd35b22e4a392fe0adc06de1a1368ed4817905560408051808201909152600b81526a6574685f72696e6b65627960a81b602082015261129e90611575565b600061142673a2998efd205fb9d4b4963afb70778d6354ad3a41611005565b111561147c57600180546001600160a01b03191673a2998efd205fb9d4b4963afb70778d6354ad3a4117905560408051808201909152600a8152696574685f676f65726c6960b01b602082015261129e90611575565b600061149b736f485c8bf6fc43ea212e93bbf8ce046c7f1cb475611005565b11156114cd5750600180546001600160a01b031916736f485c8bf6fc43ea212e93bbf8ce046c7f1cb47517815561087f565b60006114ec7320e12a1f859b3feae5fb2a0a32c18f5a65555bbf611005565b111561151e5750600180546001600160a01b0319167320e12a1f859b3feae5fb2a0a32c18f5a65555bbf17815561087f565b600061153d7351efaf4c8b3c9afbd5ab9f4bbc82784ab6ef8faa611005565b111561156f5750600180546001600160a01b0319167351efaf4c8b3c9afbd5ab9f4bbc82784ab6ef8faa17815561087f565b50600090565b805161158890600290602084019061158c565b5050565b828054600181600116156101000203166002900490600052602060002090601f016020900481019282601f106115cd57805160ff19168380011785556115fa565b828001600101855582156115fa579182015b828111156115fa5782518255916020019190600101906115df565b5061160692915061160a565b5090565b61087f91905b808211156116065760008155600101611610565b8051610fff81611b33565b8035610fff81611b47565b8051610fff81611b47565b600082601f83011261165657600080fd5b813561166961166482611a6d565b611a46565b9150808252602083016020830185838301111561168557600080fd5b611690838284611ae4565b50505092915050565b6000602082840312156116ab57600080fd5b6000610ffb8484611624565b6000602082840312156116c957600080fd5b6000610ffb848461162f565b6000602082840312156116e757600080fd5b6000610ffb848461163a565b60008060006060848603121561170857600080fd5b6000611714868661162f565b93505060206117258682870161162f565b92505060406117368682870161162f565b9150509250925092565b6000806040838503121561175357600080fd5b600061175f858561162f565b925050602083013567ffffffffffffffff81111561177c57600080fd5b61178885828601611645565b9150509250929050565b6000806000606084860312156117a757600080fd5b60006117b3868661162f565b935050602084013567ffffffffffffffff8111156117d057600080fd5b6117dc86828701611645565b925050604084013567ffffffffffffffff8111156117f957600080fd5b61173686828701611645565b60006118118383611935565b505060c00190565b61182281611aa8565b82525050565b600061183382611a9b565b61183d8185611a9f565b935061184883611a95565b8060005b838110156118765781516118608882611805565b975061186b83611a95565b92505060010161184c565b509495945050505050565b61182281611ab3565b6118228161087f565b61182281611ace565b61182281611ad9565b60006118b082611a9b565b6118ba8185611a9f565b93506118ca818560208601611af0565b6118d381611b1c565b9093019392505050565b60006118ea603683611a9f565b7f50726f7661626c65207175657279207761732073656e742c207374616e64696e8152753390313c903337b9103a34329030b739bbb2b917171760511b602082015260400192915050565b805160c08301906119468482611819565b506020820151611959602085018261188a565b50604082015161196c604085018261188a565b50606082015161197f606085018261188a565b506080820151611992608085018261188a565b5060a08201516119a560a0850182611893565b50505050565b60208082528101610d1c8184611828565b608081016119ca828761188a565b6119d7602083018661188a565b6119e4604083018561188a565b610d416060830184611881565b606081016119ff828661189c565b8181036020830152611a1181856118a5565b90508181036040830152610d4181846118a5565b60208082528101610d1c81846118a5565b60208082528101610fff816118dd565b60405181810167ffffffffffffffff81118282101715611a6557600080fd5b604052919050565b600067ffffffffffffffff821115611a8457600080fd5b506020601f91909101601f19160190565b60200190565b5190565b90815260200190565b6000610fff82611ac2565b151590565b80610c2881611b26565b6001600160a01b031690565b6000610fff82611ab8565b6000610fff8261087f565b82818337506000910152565b60005b83811015611b0b578181015183820152602001611af3565b838111156119a55750506000910152565b601f01601f191690565b60068110611b3057fe5b50565b611b3c81611aa8565b8114611b3057600080fd5b611b3c8161087f56fea365627a7a72315820c54925a5a6a2d3d33dd2a54cd0ca7efa582f76858b1f6937d9b0a21a12c948d46c6578706572696d656e74616cf564736f6c63430005110040",
  "source": "// SPDX-License-Identifier: GPL-3.0\npragma solidity >= 0.5.0 < 0.6.0;\npragma experimental ABIEncoderV2; // allows multidimensional array returns with old solc needed for ProvableAPI\n\nimport \"./provableAPI.sol\";\n\n/**\n * @title Book\n * @author Phil Chapin\n * @notice You can use this contract for only the most basic simulation\n * @dev This is a proof-of-concept with security flaws; do not use on mainnet.\n */\ncontract Book is usingProvable {\n\n    enum State {\n        Pending,\n        Won,\n        Lost,\n        Tied,\n        Paid,\n        Error\n    }\n\n    struct Bet {\n        address payable maker;\n        bytes32 winningTeam;\n        bytes32 losingTeam;\n        uint gameTime;\n        uint amount;\n        State state;\n    }\n\n    struct Query {\n        bytes32 teamName1;\n        bytes32 teamName2;\n        uint gameTime;\n        bool pending;\n    }\n\n    Bet[] bets;\n    address payable owner;\n    mapping (bytes32 => Query) public pendingQueries;\n\n  /* \n   * Events\n   */\n    \n    event LogNewProvableQuery(string description);\n    event LogNewGameResult(string winningTeam);\n\n  /* \n   * Modifiers\n   */\n\n    /// @notice Asserts that it is now before game time\n    modifier beforeGameTime(uint gameTime) {\n        require (now < gameTime);\n        _;\n    }\n\n    /// @notice Asserts that it is now after game time\n    modifier afterGameTime(uint gameTime) {\n        require (now > gameTime);\n        _;\n    }\n\n  /* \n   * Public functions\n   */\n\n    /// @notice Public constructor\n    /// @dev Sets the owner\n    constructor() public payable {\n        // Set the owner to the transaction sender\n        owner = msg.sender;\n    }\n\n    /// @notice Add a bet to the betList\n    /// @dev If you want to debug, remove the requirement beforeGameTime(...)\n    /// @param winningTeam The name of the team the bettor wants to win\n    /// @param losingTeam The name of the team the bettor wants to lose\n    /// @param gameTime The UNIX timestamp for the game's date and start time\n    function bet(bytes32 winningTeam, bytes32 losingTeam, uint gameTime) public payable beforeGameTime(gameTime) {\n        // add a bet to the betList\n        bets.push(Bet(msg.sender, winningTeam, losingTeam, gameTime, msg.value, State.Pending));\n    }\n\n    /// @notice Returns all bets past and future\n    /// @return Array of bets\n    function getBets() public view returns (Bet[] memory) {\n        return bets;\n    }\n\n    /// @notice Triggers payments by querying Provable => WolframAlpha for a game winner\n    /// @dev This function exits and we wait for the __callback(...) to fire.  No state can be passed so we save it in pendingQueries.\n    /// @param teamName1 The name of one of the teams\n    /// @param teamName2 The name of the other team\n    /// @param gameTime The UNIX timestamp for the game's date and start time\n    function triggerPayments(bytes32 teamName1, bytes32 teamName2, uint gameTime) public afterGameTime(gameTime) {\n        emit LogNewProvableQuery(\"Provable query was sent, standing by for the answer...\");\n        // TODO?: would like to specify human readable date of UNIX gameTime for Wolfram query\n        bytes32 queryId = provable_query(\"WolframAlpha\", strConcat(\"winner game result of \", bytes32ToString(teamName1), \" vs \", bytes32ToString(teamName2)));\n        pendingQueries[queryId] = Query(teamName1, teamName2, gameTime, true);\n    }\n\n    /// @notice Callback for getting winningTeam from Provable\n    /// @dev No state can be passed so we get it from pendingQueries.\n    /// @param _myid The queryId\n    /// @param _result The name of the winning team\n    function __callback(bytes32 _myid, string memory _result) public {\n        emit LogNewGameResult(_result);\n        require(msg.sender == provable_cbAddress());\n        require (pendingQueries[_myid].pending == true);\n        bytes32 winningTeam = stringToBytes32(_result);\n        // TODO: some team names are concatted\n        // other team is losingTeam\n        bytes32 losingTeam;\n        if (pendingQueries[_myid].teamName1 == winningTeam) {\n            losingTeam = pendingQueries[_myid].teamName2;\n        } else {\n            losingTeam = pendingQueries[_myid].teamName1;\n        }\n        uint gameTime = pendingQueries[_myid].gameTime;\n        delete pendingQueries[_myid];\n\n        // Collect all losing bets into winnings account.  Tally all winning bets.\n        uint sumOfWinningBets = 0;\n        uint sumOfLosingBets = 0;\n        //Bet[] memory winners = Bet[];\n        //Bet[] memory losers = Bet[];\n        // find all bets that match exactly\n        for (uint i = 0; i < bets.length; i++) {\n            if (bets[i].state == State.Pending && bets[i].gameTime == gameTime) {\n                if (bets[i].winningTeam == winningTeam && bets[i].losingTeam == losingTeam) {\n                    // winning bet\n                    bets[i].state = State.Won;\n                    sumOfWinningBets += bets[i].amount;\n                    //winners.push(bets[i]);\n                } else if (bets[i].winningTeam == losingTeam && bets[i].losingTeam == winningTeam) {\n                    // losing bet\n                    bets[i].state = State.Lost;\n                    sumOfLosingBets += bets[i].amount;\n                    //losers.push(bets[i]);\n                }\n                // else it's a different game still pending\n            }\n        }\n        \n        // Take profit off the top\n        if (sumOfWinningBets != 0 || sumOfLosingBets != 0) {\n            uint ownerProfit = (sumOfWinningBets + sumOfLosingBets) / 100;\n            owner.transfer(ownerProfit);\n            sumOfWinningBets = sumOfWinningBets / 100 * 99;\n            sumOfLosingBets = sumOfLosingBets / 100 * 99;\n            // TODO: consider rounding errors a-la Superman 2?\n        }\n\n        // Pay all winning bets proportionally\n        for (uint i = 0; i < bets.length; i++) {\n            if (bets[i].state == State.Won && bets[i].gameTime == gameTime && bets[i].winningTeam == winningTeam && bets[i].losingTeam == losingTeam) {\n                // winners get back 99% of (their bet plus their percentage of the losing bets)\n                bets[i].maker.transfer(sumOfWinningBets * (bets[i].amount / sumOfWinningBets) + sumOfLosingBets * (bets[i].amount / sumOfWinningBets));\n                bets[i].state = State.Paid;\n            }\n        }\n    }\n\n  /* \n   * Helper functions\n   */\n\n    /// @notice Converts bytes32 to a string\n    /// @dev Thanks https://ethereum.stackexchange.com/questions/2519/how-to-convert-a-bytes32-to-string\n    function bytes32ToString(bytes32 _bytes32) internal pure returns (string memory) {\n        uint8 i = 0;\n        while(i < 32 && _bytes32[i] != 0) {\n            i++;\n        }\n        bytes memory bytesArray = new bytes(i);\n        for (i = 0; i < 32 && _bytes32[i] != 0; i++) {\n            bytesArray[i] = _bytes32[i];\n        }\n        return string(bytesArray);\n    }\n\n    /// @notice Converts a string to bytes32\n    /// @dev Thanks https://ethereum.stackexchange.com/questions/9142/how-to-convert-a-string-to-bytes32\n    function stringToBytes32(string memory source) internal pure returns (bytes32 result) {\n        bytes memory tempEmptyStringTest = bytes(source);\n        if (tempEmptyStringTest.length == 0) {\n            return 0x0;\n        }\n\n        assembly {\n            result := mload(add(source, 32))\n        }\n    }\n\n}",
  "sourcePath": "/home/phil/source/consensys/blockchain-developer-bootcamp-final-project/contracts/Book.sol",
  "compiler": {
    "name": "solc",
    "version": "0.5.17+commit.d19bba13.Emscripten.clang"
  },
  "schemaVersion": "3.4.3",
  "updatedAt": "2021-12-07T00:49:15.574Z",
  "networkType": "ethereum",
  "devdoc": {
    "author": "Phil Chapin",
    "details": "This is a proof-of-concept with security flaws; do not use on mainnet.",
    "methods": {
      "__callback(bytes32,string)": {
        "details": "No state can be passed so we get it from pendingQueries.",
        "params": {
          "_myid": "The queryId",
          "_result": "The name of the winning team"
        }
      },
      "bet(bytes32,bytes32,uint256)": {
        "details": "If you want to debug, remove the requirement beforeGameTime(...)",
        "params": {
          "gameTime": "The UNIX timestamp for the game's date and start time",
          "losingTeam": "The name of the team the bettor wants to lose",
          "winningTeam": "The name of the team the bettor wants to win"
        }
      },
      "constructor": {
        "details": "Sets the owner"
      },
      "getBets()": {
        "return": "Array of bets"
      },
      "triggerPayments(bytes32,bytes32,uint256)": {
        "details": "This function exits and we wait for the __callback(...) to fire.  No state can be passed so we save it in pendingQueries.",
        "params": {
          "gameTime": "The UNIX timestamp for the game's date and start time",
          "teamName1": "The name of one of the teams",
          "teamName2": "The name of the other team"
        }
      }
    },
    "title": "Book"
  },
  "userdoc": {
    "methods": {
      "__callback(bytes32,string)": {
        "notice": "Callback for getting winningTeam from Provable"
      },
      "bet(bytes32,bytes32,uint256)": {
        "notice": "Add a bet to the betList"
      },
      "constructor": "Public constructor",
      "getBets()": {
        "notice": "Returns all bets past and future"
      },
      "triggerPayments(bytes32,bytes32,uint256)": {
        "notice": "Triggers payments by querying Provable => WolframAlpha for a game winner"
      }
    },
    "notice": "You can use this contract for only the most basic simulation"
  }
}