{
  "contractName": "Book",
  "abi": [
    {
      "inputs": [],
      "payable": true,
      "stateMutability": "payable",
      "type": "constructor"
    },
    {
      "anonymous": false,
      "inputs": [
        {
          "indexed": false,
          "internalType": "string",
          "name": "winningTeam",
          "type": "string"
        }
      ],
      "name": "LogNewGameResult",
      "type": "event"
    },
    {
      "anonymous": false,
      "inputs": [
        {
          "indexed": false,
          "internalType": "string",
          "name": "description",
          "type": "string"
        }
      ],
      "name": "LogNewProvableQuery",
      "type": "event"
    },
    {
      "constant": true,
      "inputs": [
        {
          "internalType": "bytes32",
          "name": "",
          "type": "bytes32"
        }
      ],
      "name": "pendingQueries",
      "outputs": [
        {
          "internalType": "bytes32",
          "name": "teamName1",
          "type": "bytes32"
        },
        {
          "internalType": "bytes32",
          "name": "teamName2",
          "type": "bytes32"
        },
        {
          "internalType": "uint256",
          "name": "gameTime",
          "type": "uint256"
        },
        {
          "internalType": "bool",
          "name": "pending",
          "type": "bool"
        }
      ],
      "payable": false,
      "stateMutability": "view",
      "type": "function"
    },
    {
      "constant": false,
      "inputs": [
        {
          "internalType": "bytes32",
          "name": "winningTeam",
          "type": "bytes32"
        },
        {
          "internalType": "bytes32",
          "name": "losingTeam",
          "type": "bytes32"
        },
        {
          "internalType": "uint256",
          "name": "gameTime",
          "type": "uint256"
        }
      ],
      "name": "bet",
      "outputs": [],
      "payable": true,
      "stateMutability": "payable",
      "type": "function"
    },
    {
      "constant": true,
      "inputs": [],
      "name": "getBets",
      "outputs": [
        {
          "components": [
            {
              "internalType": "address payable",
              "name": "maker",
              "type": "address"
            },
            {
              "internalType": "bytes32",
              "name": "winningTeam",
              "type": "bytes32"
            },
            {
              "internalType": "bytes32",
              "name": "losingTeam",
              "type": "bytes32"
            },
            {
              "internalType": "uint256",
              "name": "gameTime",
              "type": "uint256"
            },
            {
              "internalType": "uint256",
              "name": "amount",
              "type": "uint256"
            },
            {
              "internalType": "enum Book.State",
              "name": "state",
              "type": "uint8"
            }
          ],
          "internalType": "struct Book.Bet[]",
          "name": "",
          "type": "tuple[]"
        }
      ],
      "payable": false,
      "stateMutability": "view",
      "type": "function"
    },
    {
      "constant": false,
      "inputs": [
        {
          "internalType": "bytes32",
          "name": "teamName1",
          "type": "bytes32"
        },
        {
          "internalType": "bytes32",
          "name": "teamName2",
          "type": "bytes32"
        },
        {
          "internalType": "uint256",
          "name": "gameTime",
          "type": "uint256"
        }
      ],
      "name": "triggerPayments",
      "outputs": [],
      "payable": false,
      "stateMutability": "nonpayable",
      "type": "function"
    },
    {
      "constant": false,
      "inputs": [
        {
          "internalType": "bytes32",
          "name": "_myid",
          "type": "bytes32"
        },
        {
          "internalType": "string",
          "name": "_result",
          "type": "string"
        }
      ],
      "name": "__callback",
      "outputs": [],
      "payable": false,
      "stateMutability": "nonpayable",
      "type": "function"
    },
    {
      "constant": false,
      "inputs": [
        {
          "internalType": "bytes32",
          "name": "_myid",
          "type": "bytes32"
        },
        {
          "internalType": "string",
          "name": "_result",
          "type": "string"
        },
        {
          "internalType": "bytes",
          "name": "_proof",
          "type": "bytes"
        }
      ],
      "name": "__callback",
      "outputs": [],
      "payable": false,
      "stateMutability": "nonpayable",
      "type": "function"
    },
    {
      "constant": true,
      "inputs": [
        {
          "internalType": "bytes32",
          "name": "_bytes32",
          "type": "bytes32"
        }
      ],
      "name": "bytes32ToString",
      "outputs": [
        {
          "internalType": "string",
          "name": "",
          "type": "string"
        }
      ],
      "payable": false,
      "stateMutability": "pure",
      "type": "function"
    },
    {
      "constant": true,
      "inputs": [
        {
          "internalType": "string",
          "name": "source",
          "type": "string"
        }
      ],
      "name": "stringToBytes32",
      "outputs": [
        {
          "internalType": "bytes32",
          "name": "result",
          "type": "bytes32"
        }
      ],
      "payable": false,
      "stateMutability": "pure",
      "type": "function"
    }
  ],
  "bytecode": "0x6080604052600680546001600160a01b03191633179055611c90806100256000396000f3fe60806040526004361061007b5760003560e01c8063a42009a91161004e578063a42009a914610128578063a6afd5fd14610148578063c6c3391a1461016a578063cfb519281461017d5761007b565b806327dc297e1461008057806338bbfa50146100a257806389a2cdcb146100c25780639201de55146100fb575b600080fd5b34801561008c57600080fd5b506100a061009b3660046117f3565b6101aa565b005b3480156100ae57600080fd5b506100a06100bd366004611845565b6106e4565b3480156100ce57600080fd5b506100e26100dd36600461176a565b610715565b6040516100f29493929190611ab9565b60405180910390f35b34801561010757600080fd5b5061011b61011636600461176a565b61073f565b6040516100f29190611b22565b34801561013457600080fd5b506100a06101433660046117a6565b610837565b34801561015457600080fd5b5061015d61096c565b6040516100f29190611a93565b6100a06101783660046117a6565b610a2f565b34801561018957600080fd5b5061019d6101983660046118b8565b610baa565b6040516100f29190611aab565b7fa6614df57b9b351433452eeb2b73de8d2b2a5eb74e7cec410a9131d0ca7ee896816040516101d99190611b22565b60405180910390a16101e9610bc8565b6001600160a01b0316336001600160a01b03161461020657600080fd5b60008281526007602052604090206003015460ff16151560011461022957600080fd5b600061023482610baa565b90507fa6614df57b9b351433452eeb2b73de8d2b2a5eb74e7cec410a9131d0ca7ee896826040516102659190611b22565b60405180910390a160008381526007602052604081205482141561029b57506000838152600760205260409020600101546102ac565b506000838152600760205260409020545b600084815260076020526040812060028101805483835560018301849055908390556003909101805460ff191690559080805b6005548110156104bb576000600582815481106102f857fe5b60009182526020909120600560069092020181015460ff169081111561031a57fe5b1480156103445750836005828154811061033057fe5b906000526020600020906006020160030154145b156104b357856005828154811061035757fe5b9060005260206000209060060201600101541480156103935750846005828154811061037f57fe5b906000526020600020906006020160020154145b15610400576001600582815481106103a757fe5b906000526020600020906006020160050160006101000a81548160ff021916908360058111156103d357fe5b0217905550600581815481106103e557fe5b906000526020600020906006020160040154830192506104b3565b846005828154811061040e57fe5b90600052602060002090600602016001015414801561044a5750856005828154811061043657fe5b906000526020600020906006020160020154145b156104b35760026005828154811061045e57fe5b906000526020600020906006020160050160006101000a81548160ff0219169083600581111561048a57fe5b02179055506005818154811061049c57fe5b906000526020600020906006020160040154820191505b6001016102df565b50811515806104c957508015155b1561052157600654604051606483850104916001600160a01b0316906108fc8315029083906000818181858888f1935050505015801561050d573d6000803e3d6000fd5b506063606493849004029282046063029150505b60005b6005548110156106da5760016005828154811061053d57fe5b60009182526020909120600560069092020181015460ff169081111561055f57fe5b1480156105895750836005828154811061057557fe5b906000526020600020906006020160030154145b80156105b25750856005828154811061059e57fe5b906000526020600020906006020160010154145b80156105db575084600582815481106105c757fe5b906000526020600020906006020160020154145b156106d257600581815481106105ed57fe5b6000918252602090912060069091020154600580546001600160a01b03909216916108fc9186918590811061061e57fe5b9060005260206000209060060201600401548161063757fe5b048402856005858154811061064857fe5b9060005260206000209060060201600401548161066157fe5b048602019081150290604051600060405180830381858888f19350505050158015610690573d6000803e3d6000fd5b506004600582815481106106a057fe5b906000526020600020906006020160050160006101000a81548160ff021916908360058111156106cc57fe5b02179055505b600101610524565b5050505050505050565b5050600080805260036020527f3617319a054d772f909f7c479a2cebe5066e836a939412e32403c99029b92eff5550565b60076020526000908152604090208054600182015460028301546003909301549192909160ff1684565b606060005b60208160ff161080156107725750828160ff166020811061076157fe5b1a60f81b6001600160f81b03191615155b1561077f57600101610744565b60608160ff166040519080825280601f01601f1916602001820160405280156107af576020820181803883390190505b509050600091505b60208260ff161080156107e55750838260ff16602081106107d457fe5b1a60f81b6001600160f81b03191615155b1561082e57838260ff16602081106107f957fe5b1a60f81b818360ff168151811061080c57fe5b60200101906001600160f81b031916908160001a9053506001909101906107b7565b9150505b919050565b8080421161084457600080fd5b7fc4dc360d0a9c0677a3379ae0a3d81e887f761e65fdf3d7e00859d1bcd3c4738960405161087190611b33565b60405180910390a1600061090e6040518060400160405280600c81526020016b576f6c6672616d416c70686160a01b8152506109096040518060400160405280601681526020017503bb4b73732b91033b0b6b2903932b9bab63a1037b3160551b8152506108de8961073f565b604051806040016040528060048152602001630103b39960e51b8152506109048a61073f565b610dd6565b610dfd565b6040805160808101825296875260208088019687528782019586526001606089018181526000948552600790925291909220965187559451948601949094555050516002830155516003909101805460ff1916911515919091179055565b60606005805480602002602001604051908101604052809291908181526020016000905b82821015610a255760008481526020908190206040805160c0810182526006860290920180546001600160a01b03168352600181015493830193909352600283015490820152600382015460608201526004820154608082015260058083015491929160a084019160ff90911690811115610a0757fe5b6005811115610a1257fe5b8152505081526020019060010190610990565b5050505090505b90565b80804210610a3c57600080fd5b6040805160c08101825233815260208101868152918101858152606082018581523460808401908152600060a085018181526005805460018082018084559483905288517f036b6384b5eca791c62761152d0c79bb0604c104a5fb6f4eb0703f3154bb3db0600690930292830180546001600160a01b0319166001600160a01b0390921691909117815599517f036b6384b5eca791c62761152d0c79bb0604c104a5fb6f4eb0703f3154bb3db183015596517f036b6384b5eca791c62761152d0c79bb0604c104a5fb6f4eb0703f3154bb3db282015594517f036b6384b5eca791c62761152d0c79bb0604c104a5fb6f4eb0703f3154bb3db386015592517f036b6384b5eca791c62761152d0c79bb0604c104a5fb6f4eb0703f3154bb3db4850155517f036b6384b5eca791c62761152d0c79bb0604c104a5fb6f4eb0703f3154bb3db59093018054919694909260ff19909216918490811115610b9c57fe5b021790555050505050505050565b80516000908290610bbf575060009050610832565b50506020015190565b6001546000906001600160a01b03161580610bf55750600154610bf3906001600160a01b03166110b8565b155b15610c0657610c0460006110bc565b505b600160009054906101000a90046001600160a01b03166001600160a01b03166338cc48316040518163ffffffff1660e01b8152600401602060405180830381600087803b158015610c5657600080fd5b505af1158015610c6a573d6000803e3d6000fd5b505050506040513d601f19601f82011682018060405250610c8e919081019061174c565b6000546001600160a01b03908116911614610d4c57600160009054906101000a90046001600160a01b03166001600160a01b03166338cc48316040518163ffffffff1660e01b8152600401602060405180830381600087803b158015610cf357600080fd5b505af1158015610d07573d6000803e3d6000fd5b505050506040513d601f19601f82011682018060405250610d2b919081019061174c565b600080546001600160a01b0319166001600160a01b03929092169190911790555b6000809054906101000a90046001600160a01b03166001600160a01b031663c281d19e6040518163ffffffff1660e01b815260040160206040518083038186803b158015610d9957600080fd5b505afa158015610dad573d6000803e3d6000fd5b505050506040513d601f19601f82011682018060405250610dd1919081019061174c565b905090565b6060610df485858585604051806020016040528060008152506110c6565b95945050505050565b6001546000906001600160a01b03161580610e2a5750600154610e28906001600160a01b03166110b8565b155b15610e3b57610e3960006110bc565b505b600160009054906101000a90046001600160a01b03166001600160a01b03166338cc48316040518163ffffffff1660e01b8152600401602060405180830381600087803b158015610e8b57600080fd5b505af1158015610e9f573d6000803e3d6000fd5b505050506040513d601f19601f82011682018060405250610ec3919081019061174c565b6000546001600160a01b03908116911614610f8157600160009054906101000a90046001600160a01b03166001600160a01b03166338cc48316040518163ffffffff1660e01b8152600401602060405180830381600087803b158015610f2857600080fd5b505af1158015610f3c573d6000803e3d6000fd5b505050506040513d601f19601f82011682018060405250610f60919081019061174c565b600080546001600160a01b0319166001600160a01b03929092169190911790555b6000805460405163524f388960e01b81526001600160a01b039091169063524f388990610fb2908790600401611b22565b602060405180830381600087803b158015610fcc57600080fd5b505af1158015610fe0573d6000803e3d6000fd5b505050506040513d601f19601f820116820180604052506110049190810190611788565b90503a62030d4002670de0b6b3a7640000018111156110275750600090506110b2565b6000805460405163adf59f9960e01b81526001600160a01b039091169163adf59f9991849161105c9189908990600401611aee565b6020604051808303818588803b15801561107557600080fd5b505af1158015611089573d6000803e3d6000fd5b50505050506040513d601f19601f820116820180604052506110ae9190810190611788565b9150505b92915050565b3b90565b60006110b26112da565b6060808690506060869050606086905060608690506060869050606081518351855187518951010101016040519080825280601f01601f19166020018201604052801561111a576020820181803883390190505b509050806000805b88518110156111735788818151811061113757fe5b602001015160f81c60f81b83838060010194508151811061115457fe5b60200101906001600160f81b031916908160001a905350600101611122565b5060005b87518110156111c85787818151811061118c57fe5b602001015160f81c60f81b8383806001019450815181106111a957fe5b60200101906001600160f81b031916908160001a905350600101611177565b5060005b865181101561121d578681815181106111e157fe5b602001015160f81c60f81b8383806001019450815181106111fe57fe5b60200101906001600160f81b031916908160001a9053506001016111cc565b5060005b85518110156112725785818151811061123657fe5b602001015160f81c60f81b83838060010194508151811061125357fe5b60200101906001600160f81b031916908160001a905350600101611221565b5060005b84518110156112c75784818151811061128b57fe5b602001015160f81c60f81b8383806001019450815181106112a857fe5b60200101906001600160f81b031916908160001a905350600101611276565b50909d9c50505050505050505050505050565b6000806112fa731d3b2638a7cc9f2cb3d298a3da7a90b67e5506ed6110b8565b111561135957600180546001600160a01b031916731d3b2638a7cc9f2cb3d298a3da7a90b67e5506ed17905560408051808201909152600b81526a195d1a17db585a5b9b995d60aa1b602082015261135190611628565b506001610a2c565b600061137873c03a2615d5efaf5f49f60b7bb6583eaec212fdf16110b8565b11156113d057600180546001600160a01b03191673c03a2615d5efaf5f49f60b7bb6583eaec212fdf117905560408051808201909152600c81526b6574685f726f707374656e3360a01b602082015261135190611628565b60006113ef73b7a07bcf2ba2f2703b24c0691b5278999c59ac7e6110b8565b111561144457600180546001600160a01b03191673b7a07bcf2ba2f2703b24c0691b5278999c59ac7e17905560408051808201909152600981526832ba342fb5b7bb30b760b91b602082015261135190611628565b600061146373146500cfd35b22e4a392fe0adc06de1a1368ed486110b8565b11156114ba57600180546001600160a01b03191673146500cfd35b22e4a392fe0adc06de1a1368ed4817905560408051808201909152600b81526a6574685f72696e6b65627960a81b602082015261135190611628565b60006114d973a2998efd205fb9d4b4963afb70778d6354ad3a416110b8565b111561152f57600180546001600160a01b03191673a2998efd205fb9d4b4963afb70778d6354ad3a4117905560408051808201909152600a8152696574685f676f65726c6960b01b602082015261135190611628565b600061154e736f485c8bf6fc43ea212e93bbf8ce046c7f1cb4756110b8565b11156115805750600180546001600160a01b031916736f485c8bf6fc43ea212e93bbf8ce046c7f1cb475178155610a2c565b600061159f7320e12a1f859b3feae5fb2a0a32c18f5a65555bbf6110b8565b11156115d15750600180546001600160a01b0319167320e12a1f859b3feae5fb2a0a32c18f5a65555bbf178155610a2c565b60006115f07351efaf4c8b3c9afbd5ab9f4bbc82784ab6ef8faa6110b8565b11156116225750600180546001600160a01b0319167351efaf4c8b3c9afbd5ab9f4bbc82784ab6ef8faa178155610a2c565b50600090565b805161163b90600290602084019061163f565b5050565b828054600181600116156101000203166002900490600052602060002090601f016020900481019282601f1061168057805160ff19168380011785556116ad565b828001600101855582156116ad579182015b828111156116ad578251825591602001919060010190611692565b506116b99291506116bd565b5090565b610a2c91905b808211156116b957600081556001016116c3565b80516110b281611c30565b80356110b281611c44565b80516110b281611c44565b600082601f83011261170957600080fd5b813561171c61171782611b6a565b611b43565b9150808252602083016020830185838301111561173857600080fd5b611743838284611be1565b50505092915050565b60006020828403121561175e57600080fd5b60006110ae84846116d7565b60006020828403121561177c57600080fd5b60006110ae84846116e2565b60006020828403121561179a57600080fd5b60006110ae84846116ed565b6000806000606084860312156117bb57600080fd5b60006117c786866116e2565b93505060206117d8868287016116e2565b92505060406117e9868287016116e2565b9150509250925092565b6000806040838503121561180657600080fd5b600061181285856116e2565b925050602083013567ffffffffffffffff81111561182f57600080fd5b61183b858286016116f8565b9150509250929050565b60008060006060848603121561185a57600080fd5b600061186686866116e2565b935050602084013567ffffffffffffffff81111561188357600080fd5b61188f868287016116f8565b925050604084013567ffffffffffffffff8111156118ac57600080fd5b6117e9868287016116f8565b6000602082840312156118ca57600080fd5b813567ffffffffffffffff8111156118e157600080fd5b6110ae848285016116f8565b60006118f98383611a1d565b505060c00190565b61190a81611ba5565b82525050565b600061191b82611b98565b6119258185611b9c565b935061193083611b92565b8060005b8381101561195e57815161194888826118ed565b975061195383611b92565b925050600101611934565b509495945050505050565b61190a81611bb0565b61190a81610a2c565b61190a81611bcb565b61190a81611bd6565b600061199882611b98565b6119a28185611b9c565b93506119b2818560208601611bed565b6119bb81611c19565b9093019392505050565b60006119d2603683611b9c565b7f50726f7661626c65207175657279207761732073656e742c207374616e64696e8152753390313c903337b9103a34329030b739bbb2b917171760511b602082015260400192915050565b805160c0830190611a2e8482611901565b506020820151611a416020850182611972565b506040820151611a546040850182611972565b506060820151611a676060850182611972565b506080820151611a7a6080850182611972565b5060a0820151611a8d60a085018261197b565b50505050565b60208082528101611aa48184611910565b9392505050565b602081016110b28284611972565b60808101611ac78287611972565b611ad46020830186611972565b611ae16040830185611972565b610df46060830184611969565b60608101611afc8286611984565b8181036020830152611b0e818561198d565b90508181036040830152610df4818461198d565b60208082528101611aa4818461198d565b602080825281016110b2816119c5565b60405181810167ffffffffffffffff81118282101715611b6257600080fd5b604052919050565b600067ffffffffffffffff821115611b8157600080fd5b506020601f91909101601f19160190565b60200190565b5190565b90815260200190565b60006110b282611bbf565b151590565b8061083281611c23565b6001600160a01b031690565b60006110b282611bb5565b60006110b282610a2c565b82818337506000910152565b60005b83811015611c08578181015183820152602001611bf0565b83811115611a8d5750506000910152565b601f01601f191690565b60068110611c2d57fe5b50565b611c3981611ba5565b8114611c2d57600080fd5b611c3981610a2c56fea365627a7a72315820bcdf241063454e4ed54919abde2afa0ce9e0fe4fee871bb4d38139cc586c22776c6578706572696d656e74616cf564736f6c63430005110040",
  "source": "// SPDX-License-Identifier: GPL-3.0\npragma solidity >= 0.5.0 < 0.6.0;\npragma experimental ABIEncoderV2; // allows multidimensional array returns with old solc needed for ProvableAPI\n\nimport \"./provableAPI.sol\";\n\n/**\n * @title Book\n * @dev pseudocode\n */\ncontract Book is usingProvable {\n\n    enum State {\n        Pending,\n        Won,\n        Lost,\n        Tied,\n        Paid,\n        Error\n    }\n\n    struct Bet {\n        address payable maker;\n        bytes32 winningTeam;\n        bytes32 losingTeam;\n        uint gameTime;\n        uint amount;\n        State state;\n    }\n\n    struct Query {\n        bytes32 teamName1;\n        bytes32 teamName2;\n        uint gameTime;\n        bool pending;\n    }\n\n    Bet[] bets;\n    address payable owner;\n    mapping (bytes32 => Query) public pendingQueries;\n    \n    event LogNewProvableQuery(string description);\n    event LogNewGameResult(string winningTeam);\n\n    constructor() public payable {\n        // Set the owner to the transaction sender\n        owner = msg.sender;\n    }\n\n    function bet(bytes32 winningTeam, bytes32 losingTeam, uint gameTime) public payable beforeGameTime(gameTime) {\n        // add a bet to the betList\n        bets.push(Bet(msg.sender, winningTeam, losingTeam, gameTime, msg.value, State.Pending));\n    }\n\n    function getBets() public view returns (Bet[] memory) {\n        return bets;\n    }\n\n    function triggerPayments(bytes32 teamName1, bytes32 teamName2, uint gameTime) public afterGameTime(gameTime) {\n        emit LogNewProvableQuery(\"Provable query was sent, standing by for the answer...\");\n        // TODO?: would like to specify human readable date of UNIX gameTime for Wolfram query\n        bytes32 queryId = provable_query(\"WolframAlpha\", strConcat(\"winner game result of \", bytes32ToString(teamName1), \" vs \", bytes32ToString(teamName2)));\n        pendingQueries[queryId] = Query(teamName1, teamName2, gameTime, true);\n    }\n\n    \n    // Callback for getting winningTeam from Provable\n    function __callback(\n        bytes32 _myid,\n        string memory _result\n    )\n        public\n    {\n        emit LogNewGameResult(_result);\n        require(msg.sender == provable_cbAddress());\n        require (pendingQueries[_myid].pending == true);\n        bytes32 winningTeam = stringToBytes32(_result);\n        emit LogNewGameResult(_result);\n        // other team is losingTeam\n        bytes32 losingTeam;\n        if (pendingQueries[_myid].teamName1 == winningTeam) {\n            losingTeam = pendingQueries[_myid].teamName2;\n        } else {\n            losingTeam = pendingQueries[_myid].teamName1;\n        }\n        uint gameTime = pendingQueries[_myid].gameTime;\n        delete pendingQueries[_myid];\n\n        // Collect all losing bets into winnings account.  Tally all winning bets.\n        uint sumOfWinningBets = 0;\n        uint sumOfLosingBets = 0;\n        //Bet[] memory winners = Bet[];\n        //Bet[] memory losers = Bet[];\n        // find all bets that match exactly\n        for (uint i = 0; i < bets.length; i++) {\n            if (bets[i].state == State.Pending && bets[i].gameTime == gameTime) {\n                if (bets[i].winningTeam == winningTeam && bets[i].losingTeam == losingTeam) {\n                    // winning bet\n                    bets[i].state = State.Won;\n                    sumOfWinningBets += bets[i].amount;\n                    //winners.push(bets[i]);\n                } else if (bets[i].winningTeam == losingTeam && bets[i].losingTeam == winningTeam) {\n                    // losing bet\n                    bets[i].state = State.Lost;\n                    sumOfLosingBets += bets[i].amount;\n                    //losers.push(bets[i]);\n                }\n                // else it's a different game still pending\n            }\n        }\n        \n        // Take profit off the top\n        if (sumOfWinningBets != 0 || sumOfLosingBets != 0) {\n            uint ownerProfit = (sumOfWinningBets + sumOfLosingBets) / 100;\n            owner.transfer(ownerProfit);\n            sumOfWinningBets = sumOfWinningBets / 100 * 99;\n            sumOfLosingBets = sumOfLosingBets / 100 * 99;\n            // TODO: consider rounding errors a-la Superman 2?\n        }\n\n        // Pay all winning bets proportionally\n        for (uint i = 0; i < bets.length; i++) {\n            if (bets[i].state == State.Won && bets[i].gameTime == gameTime && bets[i].winningTeam == winningTeam && bets[i].losingTeam == losingTeam) {\n                // winners get back 99% of (their bet plus their percentage of the losing bets)\n                bets[i].maker.transfer(sumOfWinningBets * (bets[i].amount / sumOfWinningBets) + sumOfLosingBets * (bets[i].amount / sumOfWinningBets));\n                bets[i].state = State.Paid;\n            }\n        }\n    }\n\n    // asserts that it is now before game time\n    modifier beforeGameTime(uint gameTime) {\n        require (now < gameTime);\n        _;\n    }\n\n    // asserts that it is now after game time\n    modifier afterGameTime(uint gameTime) {\n        require (now > gameTime);\n        _;\n    }\n\n    // Thanks https://ethereum.stackexchange.com/questions/2519/how-to-convert-a-bytes32-to-string\n    function bytes32ToString(bytes32 _bytes32) public pure returns (string memory) {\n        uint8 i = 0;\n        while(i < 32 && _bytes32[i] != 0) {\n            i++;\n        }\n        bytes memory bytesArray = new bytes(i);\n        for (i = 0; i < 32 && _bytes32[i] != 0; i++) {\n            bytesArray[i] = _bytes32[i];\n        }\n        return string(bytesArray);\n    }\n\n    // Thanks https://ethereum.stackexchange.com/questions/9142/how-to-convert-a-string-to-bytes32\n    function stringToBytes32(string memory source) public pure returns (bytes32 result) {\n    bytes memory tempEmptyStringTest = bytes(source);\n    if (tempEmptyStringTest.length == 0) {\n        return 0x0;\n    }\n\n    assembly {\n        result := mload(add(source, 32))\n    }\n}\n\n}",
  "sourcePath": "/home/phil/source/consensys/blockchain-developer-bootcamp-final-project/contracts/Book.sol",
  "compiler": {
    "name": "solc",
    "version": "0.5.17+commit.d19bba13.Emscripten.clang"
  },
  "schemaVersion": "3.4.3",
  "updatedAt": "2021-12-01T00:27:05.999Z",
  "devdoc": {
    "details": "pseudocode",
    "methods": {},
    "title": "Book"
  },
  "userdoc": {
    "methods": {}
  }
}