{
  "contractName": "WolframAlpha",
  "abi": [
    {
      "inputs": [],
      "payable": false,
      "stateMutability": "nonpayable",
      "type": "constructor"
    },
    {
      "anonymous": false,
      "inputs": [
        {
          "indexed": false,
          "internalType": "string",
          "name": "description",
          "type": "string"
        }
      ],
      "name": "LogNewProvableQuery",
      "type": "event"
    },
    {
      "anonymous": false,
      "inputs": [
        {
          "indexed": false,
          "internalType": "string",
          "name": "temperature",
          "type": "string"
        }
      ],
      "name": "LogNewTemperatureMeasure",
      "type": "event"
    },
    {
      "constant": true,
      "inputs": [],
      "name": "temperature",
      "outputs": [
        {
          "internalType": "string",
          "name": "",
          "type": "string"
        }
      ],
      "payable": false,
      "stateMutability": "view",
      "type": "function"
    },
    {
      "constant": false,
      "inputs": [
        {
          "internalType": "bytes32",
          "name": "_myid",
          "type": "bytes32"
        },
        {
          "internalType": "string",
          "name": "_result",
          "type": "string"
        }
      ],
      "name": "__callback",
      "outputs": [],
      "payable": false,
      "stateMutability": "nonpayable",
      "type": "function"
    },
    {
      "constant": false,
      "inputs": [
        {
          "internalType": "bytes32",
          "name": "_myid",
          "type": "bytes32"
        },
        {
          "internalType": "string",
          "name": "_result",
          "type": "string"
        },
        {
          "internalType": "bytes",
          "name": "_proof",
          "type": "bytes"
        }
      ],
      "name": "__callback",
      "outputs": [],
      "payable": false,
      "stateMutability": "nonpayable",
      "type": "function"
    },
    {
      "constant": false,
      "inputs": [],
      "name": "update",
      "outputs": [],
      "payable": true,
      "stateMutability": "payable",
      "type": "function"
    }
  ],
  "bytecode": "0x60806040523480156200001157600080fd5b50620000256001600160e01b036200002b16565b62000993565b7fc4dc360d0a9c0677a3379ae0a3d81e887f761e65fdf3d7e00859d1bcd3c47389604051808060200182810382526036815260200180620018e36036913960400191505060405180910390a1620000e26040518060400160405280600c81526020016b576f6c6672616d416c70686160a01b8152506040518060400160405280601581526020017f74656d706572617475726520696e204c6f6e646f6e0000000000000000000000815250620000e560201b60201c565b50565b6001546000906001600160a01b031615806200011e57506001546200011c906001600160a01b03166001600160e01b03620004d516565b155b156200013b576200013960006001600160e01b03620004d916565b505b600160009054906101000a90046001600160a01b03166001600160a01b03166338cc48316040518163ffffffff1660e01b8152600401602060405180830381600087803b1580156200018c57600080fd5b505af1158015620001a1573d6000803e3d6000fd5b505050506040513d6020811015620001b857600080fd5b50516000546001600160a01b039081169116146200026f57600160009054906101000a90046001600160a01b03166001600160a01b03166338cc48316040518163ffffffff1660e01b8152600401602060405180830381600087803b1580156200022157600080fd5b505af115801562000236573d6000803e3d6000fd5b505050506040513d60208110156200024d57600080fd5b5051600080546001600160a01b0319166001600160a01b039092169190911790555b6000805460405163524f388960e01b81526020600482018181528751602484015287516001600160a01b039094169363524f38899389938392604490920191908501908083838b5b83811015620002d1578181015183820152602001620002b7565b50505050905090810190601f168015620002ff5780820380516001836020036101000a031916815260200191505b5092505050602060405180830381600087803b1580156200031f57600080fd5b505af115801562000334573d6000803e3d6000fd5b505050506040513d60208110156200034b57600080fd5b50519050670de0b6b3a764000062030d403a020181111562000372575060009050620004cf565b6000805460405163adf59f9960e01b8152600481018381526060602483019081528851606484015288516001600160a01b039094169463adf59f9994879491938b938b9391929091604481019160849091019060208701908083838b5b83811015620003e9578181015183820152602001620003cf565b50505050905090810190601f168015620004175780820380516001836020036101000a031916815260200191505b50838103825284518152845160209182019186019080838360005b838110156200044c57818101518382015260200162000432565b50505050905090810190601f1680156200047a5780820380516001836020036101000a031916815260200191505b50955050505050506020604051808303818588803b1580156200049c57600080fd5b505af1158015620004b1573d6000803e3d6000fd5b50505050506040513d6020811015620004c957600080fd5b50519150505b92915050565b3b90565b6000620004cf6001600160e01b03620004ee16565b60008062000519731d3b2638a7cc9f2cb3d298a3da7a90b67e5506ed6001600160e01b03620004d516565b11156200058557600180546001600160a01b031916731d3b2638a7cc9f2cb3d298a3da7a90b67e5506ed17905560408051808201909152600b81526a195d1a17db585a5b9b995d60aa1b60208201526200057c906001600160e01b03620008d816565b506001620008d5565b6000620005af73c03a2615d5efaf5f49f60b7bb6583eaec212fdf16001600160e01b03620004d516565b11156200061357600180546001600160a01b03191673c03a2615d5efaf5f49f60b7bb6583eaec212fdf117905560408051808201909152600c81526b6574685f726f707374656e3360a01b60208201526200057c906001600160e01b03620008d816565b60006200063d73b7a07bcf2ba2f2703b24c0691b5278999c59ac7e6001600160e01b03620004d516565b11156200069e57600180546001600160a01b03191673b7a07bcf2ba2f2703b24c0691b5278999c59ac7e17905560408051808201909152600981526832ba342fb5b7bb30b760b91b60208201526200057c906001600160e01b03620008d816565b6000620006c873146500cfd35b22e4a392fe0adc06de1a1368ed486001600160e01b03620004d516565b11156200072b57600180546001600160a01b03191673146500cfd35b22e4a392fe0adc06de1a1368ed4817905560408051808201909152600b81526a6574685f72696e6b65627960a81b60208201526200057c906001600160e01b03620008d816565b60006200075573a2998efd205fb9d4b4963afb70778d6354ad3a416001600160e01b03620004d516565b1115620007b757600180546001600160a01b03191673a2998efd205fb9d4b4963afb70778d6354ad3a4117905560408051808201909152600a8152696574685f676f65726c6960b01b60208201526200057c906001600160e01b03620008d816565b6000620007e1736f485c8bf6fc43ea212e93bbf8ce046c7f1cb4756001600160e01b03620004d516565b1115620008155750600180546001600160a01b031916736f485c8bf6fc43ea212e93bbf8ce046c7f1cb475178155620008d5565b60006200083f7320e12a1f859b3feae5fb2a0a32c18f5a65555bbf6001600160e01b03620004d516565b1115620008735750600180546001600160a01b0319167320e12a1f859b3feae5fb2a0a32c18f5a65555bbf178155620008d5565b60006200089d7351efaf4c8b3c9afbd5ab9f4bbc82784ab6ef8faa6001600160e01b03620004d516565b1115620008d15750600180546001600160a01b0319167351efaf4c8b3c9afbd5ab9f4bbc82784ab6ef8faa178155620008d5565b5060005b90565b8051620008ed906002906020840190620008f1565b5050565b828054600181600116156101000203166002900490600052602060002090601f016020900481019282601f106200093457805160ff191683800117855562000964565b8280016001018555821562000964579182015b828111156200096457825182559160200191906001019062000947565b506200097292915062000976565b5090565b620008d591905b808211156200097257600081556001016200097d565b610f4080620009a36000396000f3fe60806040526004361061003f5760003560e01c806327dc297e1461004457806338bbfa5014610100578063a2e6204514610241578063adccea1214610249575b600080fd5b34801561005057600080fd5b506100fe6004803603604081101561006757600080fd5b8135919081019060408101602082013564010000000081111561008957600080fd5b82018360208201111561009b57600080fd5b803590602001918460018302840111640100000000831117156100bd57600080fd5b91908080601f0160208091040260200160405190810160405280939291908181526020018383808284376000920191909152509295506102d3945050505050565b005b34801561010c57600080fd5b506100fe6004803603606081101561012357600080fd5b8135919081019060408101602082013564010000000081111561014557600080fd5b82018360208201111561015757600080fd5b8035906020019184600183028401116401000000008311171561017957600080fd5b91908080601f01602080910402602001604051908101604052809392919081815260200183838082843760009201919091525092959493602081019350359150506401000000008111156101cc57600080fd5b8201836020820111156101de57600080fd5b8035906020019184600183028401116401000000008311171561020057600080fd5b91908080601f0160208091040260200160405190810160405280939291908181526020018383808284376000920191909152509295506103bd945050505050565b6100fe6103ee565b34801561025557600080fd5b5061025e610497565b6040805160208082528351818301528351919283929083019185019080838360005b83811015610298578181015183820152602001610280565b50505050905090810190601f1680156102c55780820380516001836020036101000a031916815260200191505b509250505060405180910390f35b6102db610525565b6001600160a01b0316336001600160a01b0316146102f857600080fd5b805161030b906005906020840190610e3d565b5060408051602080825260058054600260001961010060018416150201909116049183018290527f4c7d0b87e189b9f866291da1eb75ea9852bfff2c58a3eace1299a5a1d448caad939092918291820190849080156103ab5780601f10610380576101008083540402835291602001916103ab565b820191906000526020600020905b81548152906001019060200180831161038e57829003601f168201915b50509250505060405180910390a15050565b5050600080805260036020527f3617319a054d772f909f7c479a2cebe5066e836a939412e32403c99029b92eff5550565b7fc4dc360d0a9c0677a3379ae0a3d81e887f761e65fdf3d7e00859d1bcd3c47389604051808060200182810382526036815260200180610ed66036913960400191505060405180910390a16104946040518060400160405280600c81526020016b576f6c6672616d416c70686160a01b815250604051806040016040528060158152602001743a32b6b832b930ba3ab9329034b7102637b73237b760591b81525061070f565b50565b6005805460408051602060026001851615610100026000190190941693909304601f8101849004840282018401909252818152929183018282801561051d5780601f106104f25761010080835404028352916020019161051d565b820191906000526020600020905b81548152906001019060200180831161050057829003601f168201915b505050505081565b6001546000906001600160a01b031615806105525750600154610550906001600160a01b0316610acf565b155b15610563576105616000610ad3565b505b600160009054906101000a90046001600160a01b03166001600160a01b03166338cc48316040518163ffffffff1660e01b8152600401602060405180830381600087803b1580156105b357600080fd5b505af11580156105c7573d6000803e3d6000fd5b505050506040513d60208110156105dd57600080fd5b50516000546001600160a01b0390811691161461069057600160009054906101000a90046001600160a01b03166001600160a01b03166338cc48316040518163ffffffff1660e01b8152600401602060405180830381600087803b15801561064457600080fd5b505af1158015610658573d6000803e3d6000fd5b505050506040513d602081101561066e57600080fd5b5051600080546001600160a01b0319166001600160a01b039092169190911790555b6000809054906101000a90046001600160a01b03166001600160a01b031663c281d19e6040518163ffffffff1660e01b815260040160206040518083038186803b1580156106dd57600080fd5b505afa1580156106f1573d6000803e3d6000fd5b505050506040513d602081101561070757600080fd5b505190505b90565b6001546000906001600160a01b0316158061073c575060015461073a906001600160a01b0316610acf565b155b1561074d5761074b6000610ad3565b505b600160009054906101000a90046001600160a01b03166001600160a01b03166338cc48316040518163ffffffff1660e01b8152600401602060405180830381600087803b15801561079d57600080fd5b505af11580156107b1573d6000803e3d6000fd5b505050506040513d60208110156107c757600080fd5b50516000546001600160a01b0390811691161461087a57600160009054906101000a90046001600160a01b03166001600160a01b03166338cc48316040518163ffffffff1660e01b8152600401602060405180830381600087803b15801561082e57600080fd5b505af1158015610842573d6000803e3d6000fd5b505050506040513d602081101561085857600080fd5b5051600080546001600160a01b0319166001600160a01b039092169190911790555b6000805460405163524f388960e01b81526020600482018181528751602484015287516001600160a01b039094169363524f38899389938392604490920191908501908083838b5b838110156108da5781810151838201526020016108c2565b50505050905090810190601f1680156109075780820380516001836020036101000a031916815260200191505b5092505050602060405180830381600087803b15801561092657600080fd5b505af115801561093a573d6000803e3d6000fd5b505050506040513d602081101561095057600080fd5b50519050670de0b6b3a764000062030d403a0201811115610975575060009050610ac9565b6000805460405163adf59f9960e01b8152600481018381526060602483019081528851606484015288516001600160a01b039094169463adf59f9994879491938b938b9391929091604481019160849091019060208701908083838b5b838110156109ea5781810151838201526020016109d2565b50505050905090810190601f168015610a175780820380516001836020036101000a031916815260200191505b50838103825284518152845160209182019186019080838360005b83811015610a4a578181015183820152602001610a32565b50505050905090810190601f168015610a775780820380516001836020036101000a031916815260200191505b50955050505050506020604051808303818588803b158015610a9857600080fd5b505af1158015610aac573d6000803e3d6000fd5b50505050506040513d6020811015610ac357600080fd5b50519150505b92915050565b3b90565b6000610ac9600080610af8731d3b2638a7cc9f2cb3d298a3da7a90b67e5506ed610acf565b1115610b5757600180546001600160a01b031916731d3b2638a7cc9f2cb3d298a3da7a90b67e5506ed17905560408051808201909152600b81526a195d1a17db585a5b9b995d60aa1b6020820152610b4f90610e26565b50600161070c565b6000610b7673c03a2615d5efaf5f49f60b7bb6583eaec212fdf1610acf565b1115610bce57600180546001600160a01b03191673c03a2615d5efaf5f49f60b7bb6583eaec212fdf117905560408051808201909152600c81526b6574685f726f707374656e3360a01b6020820152610b4f90610e26565b6000610bed73b7a07bcf2ba2f2703b24c0691b5278999c59ac7e610acf565b1115610c4257600180546001600160a01b03191673b7a07bcf2ba2f2703b24c0691b5278999c59ac7e17905560408051808201909152600981526832ba342fb5b7bb30b760b91b6020820152610b4f90610e26565b6000610c6173146500cfd35b22e4a392fe0adc06de1a1368ed48610acf565b1115610cb857600180546001600160a01b03191673146500cfd35b22e4a392fe0adc06de1a1368ed4817905560408051808201909152600b81526a6574685f72696e6b65627960a81b6020820152610b4f90610e26565b6000610cd773a2998efd205fb9d4b4963afb70778d6354ad3a41610acf565b1115610d2d57600180546001600160a01b03191673a2998efd205fb9d4b4963afb70778d6354ad3a4117905560408051808201909152600a8152696574685f676f65726c6960b01b6020820152610b4f90610e26565b6000610d4c736f485c8bf6fc43ea212e93bbf8ce046c7f1cb475610acf565b1115610d7e5750600180546001600160a01b031916736f485c8bf6fc43ea212e93bbf8ce046c7f1cb47517815561070c565b6000610d9d7320e12a1f859b3feae5fb2a0a32c18f5a65555bbf610acf565b1115610dcf5750600180546001600160a01b0319167320e12a1f859b3feae5fb2a0a32c18f5a65555bbf17815561070c565b6000610dee7351efaf4c8b3c9afbd5ab9f4bbc82784ab6ef8faa610acf565b1115610e205750600180546001600160a01b0319167351efaf4c8b3c9afbd5ab9f4bbc82784ab6ef8faa17815561070c565b50600090565b8051610e39906002906020840190610e3d565b5050565b828054600181600116156101000203166002900490600052602060002090601f016020900481019282601f10610e7e57805160ff1916838001178555610eab565b82800160010185558215610eab579182015b82811115610eab578251825591602001919060010190610e90565b50610eb7929150610ebb565b5090565b61070c91905b80821115610eb75760008155600101610ec156fe50726f7661626c65207175657279207761732073656e742c207374616e64696e6720627920666f722074686520616e737765722e2e2ea265627a7a72315820cb18d2d385fc5bd65334b65414ed0f132899b57d923c28f027acdf447cd5176164736f6c6343000511003250726f7661626c65207175657279207761732073656e742c207374616e64696e6720627920666f722074686520616e737765722e2e2e",
  "source": "pragma solidity >= 0.5.0 < 0.6.0;\n\nimport \"./provableAPI.sol\";\n\ncontract WolframAlpha is usingProvable {\n\n    string public temperature;\n\n    event LogNewProvableQuery(string description);\n    event LogNewTemperatureMeasure(string temperature);\n\n    constructor()\n        public\n    {\n        update(); // Update on contract creation...\n    }\n\n    function __callback(\n        bytes32 _myid,\n        string memory _result\n    )\n        public\n    {\n        require(msg.sender == provable_cbAddress());\n        temperature = _result;\n        emit LogNewTemperatureMeasure(temperature);\n        // Do something with the temperature measure...\n    }\n\n    function update()\n        public\n        payable\n    {\n        emit LogNewProvableQuery(\"Provable query was sent, standing by for the answer...\");\n        provable_query(\"WolframAlpha\", \"temperature in London\");\n    }\n}\n",
  "sourcePath": "/home/phil/source/consensys/blockchain-developer-bootcamp-final-project/contracts/WolframAlpha.sol",
  "compiler": {
    "name": "solc",
    "version": "0.5.17+commit.d19bba13.Emscripten.clang"
  },
  "schemaVersion": "3.4.3",
  "updatedAt": "2021-12-03T04:01:37.246Z",
  "devdoc": {
    "methods": {}
  },
  "userdoc": {
    "methods": {}
  }
}